{
  "_format": "hh3-artifact-1",
  "contractName": "RedPacket",
  "sourceName": "contracts/RedPacket.sol",
  "abi": [
    {
      "anonymous": false,
      "inputs": [
        {
          "indexed": true,
          "internalType": "uint256",
          "name": "packetId",
          "type": "uint256"
        },
        {
          "indexed": true,
          "internalType": "address",
          "name": "creator",
          "type": "address"
        },
        {
          "indexed": false,
          "internalType": "uint256",
          "name": "totalAmount",
          "type": "uint256"
        },
        {
          "indexed": false,
          "internalType": "uint256",
          "name": "totalShares",
          "type": "uint256"
        },
        {
          "indexed": false,
          "internalType": "bool",
          "name": "isEqual",
          "type": "bool"
        }
      ],
      "name": "PacketCreated",
      "type": "event"
    },
    {
      "anonymous": false,
      "inputs": [
        {
          "indexed": true,
          "internalType": "uint256",
          "name": "packetId",
          "type": "uint256"
        },
        {
          "indexed": true,
          "internalType": "address",
          "name": "user",
          "type": "address"
        },
        {
          "indexed": false,
          "internalType": "uint256",
          "name": "amount",
          "type": "uint256"
        }
      ],
      "name": "PacketGrabbed",
      "type": "event"
    },
    {
      "inputs": [
        {
          "internalType": "uint256",
          "name": "packetId",
          "type": "uint256"
        },
        {
          "internalType": "address",
          "name": "user",
          "type": "address"
        }
      ],
      "name": "checkClaim",
      "outputs": [
        {
          "internalType": "uint256",
          "name": "",
          "type": "uint256"
        }
      ],
      "stateMutability": "view",
      "type": "function"
    },
    {
      "inputs": [
        {
          "internalType": "uint256",
          "name": "packetId",
          "type": "uint256"
        }
      ],
      "name": "checkPacket",
      "outputs": [
        {
          "internalType": "address",
          "name": "sender",
          "type": "address"
        },
        {
          "internalType": "uint256",
          "name": "totalAmount",
          "type": "uint256"
        },
        {
          "internalType": "uint256",
          "name": "remainingAmount",
          "type": "uint256"
        },
        {
          "internalType": "uint256",
          "name": "totalShares",
          "type": "uint256"
        },
        {
          "internalType": "uint256",
          "name": "remainingShares",
          "type": "uint256"
        },
        {
          "internalType": "bool",
          "name": "isEqual",
          "type": "bool"
        }
      ],
      "stateMutability": "view",
      "type": "function"
    },
    {
      "inputs": [
        {
          "internalType": "uint256",
          "name": "",
          "type": "uint256"
        },
        {
          "internalType": "address",
          "name": "",
          "type": "address"
        }
      ],
      "name": "claimed",
      "outputs": [
        {
          "internalType": "uint256",
          "name": "",
          "type": "uint256"
        }
      ],
      "stateMutability": "view",
      "type": "function"
    },
    {
      "inputs": [
        {
          "internalType": "uint256",
          "name": "totalShares",
          "type": "uint256"
        },
        {
          "internalType": "bool",
          "name": "isEqual",
          "type": "bool"
        }
      ],
      "name": "createPacket",
      "outputs": [
        {
          "internalType": "uint256",
          "name": "packetId",
          "type": "uint256"
        }
      ],
      "stateMutability": "payable",
      "type": "function"
    },
    {
      "inputs": [
        {
          "internalType": "uint256",
          "name": "packetId",
          "type": "uint256"
        }
      ],
      "name": "grab",
      "outputs": [],
      "stateMutability": "nonpayable",
      "type": "function"
    },
    {
      "inputs": [],
      "name": "nextPacketId",
      "outputs": [
        {
          "internalType": "uint256",
          "name": "",
          "type": "uint256"
        }
      ],
      "stateMutability": "view",
      "type": "function"
    },
    {
      "inputs": [
        {
          "internalType": "uint256",
          "name": "",
          "type": "uint256"
        }
      ],
      "name": "packets",
      "outputs": [
        {
          "internalType": "address",
          "name": "sender",
          "type": "address"
        },
        {
          "internalType": "uint256",
          "name": "amount",
          "type": "uint256"
        },
        {
          "internalType": "uint256",
          "name": "remainingAmount",
          "type": "uint256"
        },
        {
          "internalType": "uint256",
          "name": "totalShares",
          "type": "uint256"
        },
        {
          "internalType": "uint256",
          "name": "remainingShares",
          "type": "uint256"
        },
        {
          "internalType": "bool",
          "name": "isEqual",
          "type": "bool"
        }
      ],
      "stateMutability": "view",
      "type": "function"
    }
  ],
  "bytecode": "0x6080604052348015600e575f5ffd5b506108e68061001c5f395ff3fe60806040526004361061006e575f3560e01c80636917d78c1161004c5780636917d78c146100fb5780638fa0085c1461010f578063b38ecf3c146101a7578063d0a9e0c0146101ba575f5ffd5b80630895c22914610072578063120aa8771461009357806331218954146100dc575b5f5ffd5b34801561007d575f5ffd5b5061009161008c366004610796565b610218565b005b34801561009e575f5ffd5b506100c96100ad3660046107ad565b600260209081525f928352604080842090915290825290205481565b6040519081526020015b60405180910390f35b3480156100e7575f5ffd5b506100c96100f63660046107ad565b6105a4565b348015610106575f5ffd5b506100c95f5481565b34801561011a575f5ffd5b5061016e610129366004610796565b5f9081526001602081905260409091208054918101546002820154600383015460048401546005909401546001600160a01b0390951695929491939092909160ff1690565b604080516001600160a01b03909716875260208701959095529385019290925260608401526080830152151560a082015260c0016100d3565b6100c96101b53660046107e6565b6105cd565b3480156101c5575f5ffd5b5061016e6101d4366004610796565b600160208190525f91825260409091208054918101546002820154600383015460048401546005909401546001600160a01b03909516949293919290919060ff1686565b5f81815260016020526040902060048101546102715760405162461bcd60e51b81526020600482015260136024820152724e6f2072656d61696e696e672073686172657360681b60448201526064015b60405180910390fd5b5f828152600260209081526040808320338452909152902054156102c95760405162461bcd60e51b815260206004820152600f60248201526e105b1c9958591e4818db185a5b5959608a1b6044820152606401610268565b60058101545f9060ff16156102f357816003015482600101546102ec9190610835565b90506103e6565b816004015460010361030a575060028101546103e6565b5f8260040154836002015461031f9190610835565b90505f61032d826002610848565b9050805f0361033a575060015b6004840154600285015460408051426020820152449181019190915233606090811b6bffffffffffffffffffffffff191690820152607481019290925260948201525f9060b40160408051601f19818403018152919052805160209091012090506103a5828261085f565b6103b0906001610872565b93505f600186600401546103c49190610885565b86600201546103d39190610885565b9050808511156103e1578094505b505050505b5f81116104355760405162461bcd60e51b815260206004820152601d60248201527f416d6f756e74206d7573742062652067726561746572207468616e20300000006044820152606401610268565b81600201548111156104895760405162461bcd60e51b815260206004820152601f60248201527f416d6f756e7420657863656564732072656d61696e696e6720616d6f756e74006044820152606401610268565b80826002015f82825461049c9190610885565b925050819055506001826004015f8282546104b79190610885565b90915550505f8381526002602090815260408083203380855292528083208490555183908381818185875af1925050503d805f8114610511576040519150601f19603f3d011682016040523d82523d5f602084013e610516565b606091505b50509050806105675760405162461bcd60e51b815260206004820152601a60248201527f5265645061636b65743a207472616e73666572206661696c65640000000000006044820152606401610268565b604051828152339085907f3c5aa4c40f74eb008f4cc1359a550602f496b597ec409f234ac2efc7a05ea0ea9060200160405180910390a350505050565b5f8281526002602090815260408083206001600160a01b03851684529091529020545b92915050565b5f5f341161061d5760405162461bcd60e51b815260206004820152601d60248201527f416d6f756e74206d7573742062652067726561746572207468616e20300000006044820152606401610268565b5f83116106785760405162461bcd60e51b815260206004820152602360248201527f546f74616c20736861726573206d75737420626520677265617465722074686160448201526206e20360ec1b6064820152608401610268565b81156106e657610688833461085f565b156106e65760405162461bcd60e51b815260206004820152602860248201527f416d6f756e74206d75737420626520646976697369626c6520627920746f74616044820152676c2073686172657360c01b6064820152608401610268565b5f5f81546106f390610898565b91829055505f818152600160208181526040928390208054336001600160a01b0319909116811782553493820184905560028201849055600382018990556004820189905560058201805460ff191689151590811790915585519485529284018990529383019190915292935083907f5b4baf0861e8b05a9d04d2eaf13742a2d6cbc1b3a65e0ac37439cbfccccfc37a9060600160405180910390a35092915050565b5f602082840312156107a6575f5ffd5b5035919050565b5f5f604083850312156107be575f5ffd5b8235915060208301356001600160a01b03811681146107db575f5ffd5b809150509250929050565b5f5f604083850312156107f7575f5ffd5b82359150602083013580151581146107db575f5ffd5b634e487b7160e01b5f52601260045260245ffd5b634e487b7160e01b5f52601160045260245ffd5b5f826108435761084361080d565b500490565b80820281158282048414176105c7576105c7610821565b5f8261086d5761086d61080d565b500690565b808201808211156105c7576105c7610821565b818103818111156105c7576105c7610821565b5f600182016108a9576108a9610821565b506001019056fea264697066735822122071f2b725266a3f5eced7dfe2428fbe96d0b5b66cd44915ea720ba0144db6fc9064736f6c634300081c0033",
  "linkReferences": {},
  "deployedLinkReferences": {},
  "immutableReferences": {},
  "inputSourceName": "project/contracts/RedPacket.sol",
  "buildInfoId": "solc-0_8_28-fff987dcff35c95f74ef1060a22e76907eef7749"
}